S015000046696E616C2050726F6A6563742E737265632E
S11300000C9434000C9451000C9451000C94510045
S11300100C948A000C9451000C9451000C945100DF
S11300200C9451000C9451000C9451000C94510008
S11300300C9451000C9451000C9451000C945100F8
S11300400C9451000C9451000C9451000C945100E8
S11300500C9451000C9451000C9451000C945100D8
S11300600C9451000C94510011241FBECFEFD8E022
S1130070DEBFCDBF11E0A0E0B1E0E4E0F4E002C0F7
S113008005900D92AE31B107D9F721E0AEE1B1E0B0
S113009001C01D92A432B207E1F70E94D4000C946F
S11300A000020C940000E0ECF0E0908195FFFDCF9D
S11300B08093C6000895CF93DF93EC018881882351
S11300C031F021960E94530089918111FBCFDF9179
S11300D0CF9108951092C50087E68093C40088E10B
S11300E08093C10086E08093C2008BE091E00E947F
S11300F05B0084E191E00E945B0080E00E94530079
S113010008958091C00088231CF48091C60008954E
S113011080E008951F920F920FB60F9211248F93CF
S11301209F93349B05C0109285001092840008C0F0
S1130130809184009091850090931F0180931E010B
S11301409F918F910F900FBE0F901F9018958AB1B9
S1130150806E8AB984B18B6084B9789483EA84BD53
S113016084E085BD16BC089590EE9BB998E095B9DE
S113017087BD88BD089590E69BB993E095B987BD86
S113018088BD089590EE9BB992E095B987BD88BD6E
S1130190089590E69BB999E095B987BD88BD089507
S11301A080E68BB915B808950E946A000E94A700E2
S11301B080E284B9C0E0D0E001E010E093C020E028
S11301C030E040E251E460E070E0CB010E94D201F3
S11301D088232CF520E030E040E251E460E070E058
S11301E0CB010E94D2018823D4F420E030E040E225
S11301F051E460E070E0CB010E94D20188237CF4DA
S113020084EB90E00E94BB002FEF83EC99E0215037
S113021080409040E1F700C000000E94D00020E040
S113022030E040E251E460E070E0CB010E94FB0169
S1130230181684F484EB90E00E94B4002FEF83EC52
S113024099E0215080409040E1F700C000000E94F6
S1130250D00048C020E030E040E251E460E070E0CB
S1130260CB010E94FB01181684F488E790E00E94F9
S1130270C2002FEF81EE94E0215080409040E1F7DE
S113028000C000000E94D0002DC020E030E040E219
S113029051E460E070E0CB010E94FB01181684F485
S11302A088E790E00E94C9002FEF81EE94E021508E
S11302B080409040E1F700C000000E94D00012C0CE
S11302C084EB90E00E94C9002FEF83EC99E0215069
S11302D080409040E1F700C000000E94D00002C0BE
S11302E0C02FD12FC130D10509F469CF2097D1F7A0
S11302F00E948100813691F488EC90E00E94C9004C
S11303002D9A9FEF20E782E0915020408040E1F752
S113031000C000002D980E94D000EACF873791F4E6
S11303208FEF90E00E94B4002D9A9FEF20E782E0C7
S1130330915020408040E1F700C000002D980E94B9
S1130340D000D6CF843691F488EC90E00E94C200AD
S11303502D9A9FEF20E782E0915020408040E1F702
S113036000C000002D980E94D000C2CF833791F4C2
S11303708FEF90E00E94BB002D9A9FEF20E782E070
S1130380915020408040E1F700C000002D980E9469
S1130390D000AECF893709F4A3CF80E091E00E946A
S11303A05B00A6CF0E94D70108F481E00895990F5D
S11303B00008550FAA0BE0E8FEEF16161706E8072B
S11303C0F907C0F012161306E407F50798F0621B4C
S11303D0730B840B950B39F40A2661F0232B242B21
S11303E0252B21F408950A2609F4A140A6958FEF40
S11303F0811D811D08950E94D70108F48FEF08958F
S1070400F894FFCF9A
S1130404496E76206B65792E0A000041542B4E41C7
S11104144D453D00524F56343235313900000B
S9030000FC
