S015000046696E616C2050726F6A6563742E737265632E
S11300000C9434000C9451000C9451000C94510045
S11300100C9465000C94FB000C9451000C9451005A
S11300200C9451000C9451000C9451000C94510008
S11300300C9451000C9451000C9451000C945100F8
S11300400C9485020C9451000C9451000C945100B2
S11300500C9451000C9451000C9451000C945100D8
S11300600C9451000C94510011241FBECFEFD8E022
S1130070DEBFCDBF11E0A0E0B1E0EAEDF8E002C0E0
S113008005900D92A231B107D9F721E0A2E1B1E0C8
S113009001C01D92A732B207E1F70E9471020C94CD
S11300A06B040C9400007894E1E8F0E080818260B5
S11300B080833D9AE8E6F0E0808182608083ECE60C
S11300C0F0E080818061808308951F920F920FB6C3
S11300D00F9211248F939F93349B05C01092850037
S11300E01092840008C080918400909185009093C0
S11300F01701809316019F918F910F900FBE0F905F
S11301001F901895CF92DF92EF92FF92459A25E3C4
S11301102A95F1F700004598BC01990F880B990BBB
S11301200E9472036B017C0120E030E040E05FE359
S11301300E94FE0320E030E048E652E40E94C80238
S11301400E943A0370931C0160931B012DEC3CEC5C
S11301504CE551E4C701B6010E94C8020E943A036B
S11301607093260160932501FF90EF90DF90CF906C
S113017008957894539AE0EBF0E080818162808363
S1130180E1EBF0E080818F6080831092B2008CE913
S11301908093B300089578948FEF8AB984B983EA81
S11301A084BD84E085BD16BC089588BD87BD80EEFE
S11301B08BB988E085B908951BB815B8089588BD32
S11301C087BD80E68BB989E085B9089588BD87BD70
S11301D080EE8BB982E085B9089578948BEF8AB963
S11301E0E8E6F0E0808184608083EDE6F0E08081E1
S11301F08460808308951F920F920FB60F9211248A
S11302002F933F934F935F936F937F938F939F931A
S1130210AF93BF93EF93FF934A9902C04C9B11C0D5
S11302200E94DC002FEF83EC99E021508040904045
S1130230E1F700C0000081E090E090931501809305
S11302401401FF91EF91BF91AF919F918F917F9195
S11302506F915F914F913F912F910F900FBE0F902F
S11302601F901895E0ECF0E0908195FFFDCF80930E
S1130270C6000895CF93DF93EC018881882331F081
S113028021960E94320189918111FBCFDF91CF9198
S113029008951092C50087E68093C40088E1809396
S11302A0C10086E08093C20080E091E00E943A01A0
S11302B089E091E00E943A0180E00E9432010895B1
S11302C00F931F93CF9310921E0110921D0104EB04
S11302D010E0CCE0F801C0838091160190911701E1
S11302E00E948200FFEF29EF80E0F150204080401F
S11302F0E1F700C0000080911B0190911C019093D4
S11303001A018093190180911D0190911E0101969B
S113031090931E0180931D014E97E4F210921E01EA
S113032010921D0104EB10E0C4E1F801C083809138
S11303301601909117010E948200FFEF29EF80E0DF
S1130340F15020408040E1F700C0000080911B0183
S113035090911C01909324018093230180911D01AD
S113036090911E01019690931E0180931D014E975A
S1130370E4F210921E0110921D0104EB10E0C4E09F
S1130380F801C08380911601909117010E948200A8
S1130390FFEF29EF80E0F15020408040E1F700C0FA
S11303A0000080911B0190911C0190932201809385
S11303B0210180911D0190911E01019690931E01CF
S11303C080931D014E97E4F210921E0110921D01BC
S11303D0CF911F910F9108950F931F93CF93109274
S11303E01E0110921D0104EB10E0CCE0F801C08363
S11303F080911601909117010E9482008FE99FE07D
S11304000197F1F700C0000080911B0190911C013D
S113041090931A018093190180911D0190911E01FE
S1130420019690931E0180931D014E97FCF2109249
S11304301E0110921D01CF911F910F9108950E94EA
S1130440EC0188EC90E00E94D5002FEF8DE292E25F
S1130450215080409040E1F700C000000E94DC0081
S11304600E94600180912101909122018E319105B9
S113047064F420912301309124012E3131052CF4B0
S113048088EC90E00E94D5000895209123013091DA
S113049024018217930774F488EC90E00E94DF0033
S11304A02FEF8FE39FE1215080409040E1F700C09F
S11304B000000895281739076CF488EC90E00E9436
S11304C0E6002FEF8FE39FE1215080409040E1F759
S11304D000C000000895EEE6F0E080818160808332
S11304E0089578940E9453000E94B9000E94EC0180
S11304F00E94CB000E94ED000E946B020E94490101
S113050080E284B90E941F02FDCF1F920F920FB6A2
S11305100F9211242F933F934F935F936F937F9385
S11305208F939F93AF93BF93EF93FF9380911201A7
S113053090911301019690931301809312018438D2
S11305409C41A9F481E090E09093150180931401FB
S113055010921301109212010E94DC008FEF93E2BB
S113056024EF815090402040E1F700C00000FF914B
S1130570EF91BF91AF919F918F917F916F915F9117
S11305804F913F912F910F900FBE0F901F90189590
S11305900E94DC020C94C4030E94BD0358F00E9424
S11305A0B60340F029F45F3F29F00C94AD035111D8
S11305B00C94F8030C94B3030E94D50368F39923B5
S11305C0B1F3552391F3951B550BBB27AA2762174B
S11305D07307840738F09F5F5F4F220F331F441F58
S11305E0AA1FA9F335D00E2E3AF0E0E832D091508C
S11305F05040E695001CCAF72BD0FE2F29D0660F79
S1130600771F881FBB1F261737074807AB07B0E8BB
S113061009F0BB0B802DBF01FF2793585F4F3AF0C1
S11306209E3F510578F00C94AD030C94F8035F3FA2
S1130630E4F3983ED4F3869577956795B795F79547
S11306409F5FC9F7880F911D9695879597F908952F
S1130650E1E0660F771F881FBB1F621773078407CB
S1130660BA0720F0621B730B840BBA0BEE1F88F7DA
S1130670E09508950E9441036894B1110C94F80325
S113068008950E94DD0388F09F5798F0B92F9927A9
S1130690B751B0F0E1F0660F771F881F991F1AF069
S11306A0BA95C9F714C0B13091F00E94F703B1E0D4
S11306B008950C94F703672F782F8827B85F39F0D3
S11306C0B93FCCF3869577956795B395D9F73EF402
S11306D090958095709561957F4F8F4F9F4F0895AA
S11306E0E89409C097FB3EF49095809570956195C8
S11306F07F4F8F4F9F4F9923A9F0F92F96E9BB277E
S11307009395F695879577956795B795F111F8CFF9
S1130710FAF4BB0F11F460FF1BC06F5F7F4F8F4F64
S11307209F4F16C0882311F096E911C0772321F05A
S11307309EE8872F762F05C0662371F096E8862FF2
S113074070E060E02AF09A95660F771F881FDAF749
S1130750880F9695879597F9089597F99F6780E88C
S113076070E060E008959FEF80EC089500240A94FF
S11307701616170618060906089500240A94121678
S11307801306140605060895092E0394000C11F4AB
S1130790882352F0BB0F40F4BF2B11F460FF04C058
S11307A06F5F7F4F8F4F9F4F089557FD9058440FB1
S11307B0551F59F05F3F71F04795880F97FB991FBC
S11307C061F09F3F79F08795089512161306140679
S11307D0551FF2CF4695F1DF08C016161706180606
S11307E0991FF1CF86957105610508940895E894E1
S11307F0BB2766277727CB0197F908950E94110438
S11308000C94C4030E94B60338F00E94BD0320F088
S1130810952311F00C94AD030C94B30311240C94A0
S1130820F8030E94D50370F3959FC1F3950F50E030
S1130830551F629FF001729FBB27F00DB11D639F8E
S1130840AA27F00DB11DAA1F649F6627B00DA11D34
S1130850661F829F2227B00DA11D621F739FB00DDA
S1130860A11D621F839FA00D611D221F749F33274A
S1130870A00D611D231F849F600D211D822F762FE3
S11308806A2F11249F5750409AF0F1F088234AF0C0
S1130890EE0FFF1FBB1F661F771F881F915050402C
S11308A0A9F79E3F510580F00C94AD030C94F80316
S11308B05F3FE4F3983ED4F3869577956795B795B3
S11308C0F795E7959F5FC1F7FE2B880F911D9695CD
S10D08D0879597F90895F894FFCF77
S11308DA41542B4E414D453D00524F563432353129
S10508EA3900CF
S9030000FC
